:020000040800F2
:10000000000002206D150008BD150008BD15000890
:10001000BD150008BD150008BD1500080000000052
:10002000000000000000000000000000BD150008F6
:10003000BD15000800000000BD1500088913000868
:10004000BD150008BD150008BD150008BD15000848
:10005000BD150008BD150008BD150008BD15000838
:10006000BD150008BD150008BD150008BD15000828
:10007000BD150008BD150008BD150008BD15000818
:10008000BD150008BD150008BD15000800000000E2
:10009000000000000000000000000000BD15000886
:1000A000BD150008BD150008BD150008BD150008E8
:1000B000BD150008BD150008BD150008BD150008D8
:1000C000BD150008BD150008BD150008BD150008C8
:1000D000BD150008BD150008BD1500080000000092
:1000E000BD150008BD150008BD1500080000000082
:1000F000000000000000000000000000BD15000826
:1001000000000000BD150008BD150008BD15000861
:1001100000000000000000000000000000000000DF
:10012000BD150008BD150008BD150008BD15000867
:10013000BD150008000000000000000000000000E5
:10014000000000000000000000000000BD150008D5
:10015000BD150008BD150008BD150008BD15000837
:10016000BD150008BD1500080000000000000000DB
:10017000000000000000000000000000000000007F
:1001800000000000BD150008000000000000000095
:08019000BD150008BD150008B3
:1001A00010B5054C237833B9044B13B10448AFF3B1
:1001B00000800123237010BD7000002000000000AB
:1001C000401E000808B5034B1BB103490348AFF3B9
:1001D000008008BD0000000074000020401E0008E0
:1001E00053B94AB9002908BF00281CBF4FF0FF319E
:1001F0004FF0FF3000F072B9ADF1080C6DE904CE9C
:1002000000F006F8DDF804E0DDE9022304B07047F1
:100210002DE9F047089E04468846002B4BD18A42C0
:10022000154667D9B2FA82F24AB1C2F1200701FA43
:1002300002F320FA07F7954047EA030894404FEA93
:10024000154E230CB8FBFEF71FFA85FC0EFB178832
:1002500043EA084307FB0CF1994209D9EB1807F16F
:10026000FF3080F01B81994240F21881023F2B44FD
:100270005B1AA4B2B3FBFEF00EFB103344EA034456
:1002800000FB0CFCA44509D92C1900F1FF3380F0C8
:100290000781A44540F2048102382C4440EA07401B
:1002A000A4EB0C0400271EB1D4400023C6E9004390
:1002B0003946BDE8F0878B4209D9002E00F0EB806B
:1002C0000027C6E9000138463946BDE8F087B3FA91
:1002D00083F7002F47D18B4202D3824200F2FA808B
:1002E000841A61EB030301209846002EE0D0C6E992
:1002F0000048DDE702B9FFDEB2FA82F2002A40F0E0
:100300008F80491B4FEA154E1FFA85F80127B1FB74
:10031000FEFC230C0EFB1C1143EA014308FB0CF10D
:10032000994207D9EB180CF1FF3002D2994200F242
:10033000CD808446591AA3B2B1FBFEF00EFB101417
:1003400043EA044408FB00F8A04507D92C1900F142
:10035000FF3302D2A04500F2B6801846A4EB080491
:1003600040EA0C409FE7C7F1200CBB4022FA0CFE8C
:100370004EEA030E01FA07F420FA0CF521FA0CF309
:100380004FEA1E482543B3FBF8F92C0C08FB193340
:100390001FFA8EFA44EA034309FB0AF49C4202FA6C
:1003A00007F200FA07F10BD91EEB030309F1FF3046
:1003B00080F087809C4240F28480A9F10209734456
:1003C0001B1BADB2B3FBF8F008FB103345EA034446
:1003D00000FB0AFAA24508D91EEB040400F1FF3322
:1003E0006BD2A24569D90238744440EA0940A0FBA7
:1003F0000289A4EB0A044C45C2464B4654D351D063
:10040000002E69D0B1EB0A0564EB030404FA0CFC7E
:10041000FD40FC404CEA0505C6E90054002747E7CB
:10042000C2F1200320FA03F7954001FA02F021FA05
:1004300003F34FEA154E3843010CB3FBFEF71FFAE6
:1004400085F80EFB173341EA034107FB08F38B42A3
:1004500004FA02F407D9691807F1FF3C2FD28B4246
:100460002DD9023F2944CB1A81B2B3FBFEF00EFB1B
:10047000103341EA034100FB08F38B4207D96918A6
:1004800000F1FF3C17D28B4215D902382944C91A12
:1004900040EA07473BE73746304609E70746E7E6C5
:1004A0001846FBE64145ABD2B8EB020A69EB0E02F7
:1004B00001381346A4E76046E9E7184695E7674622
:1004C000D1E781467CE702382C4447E7ACF1020CC7
:1004D0002B442FE7384608E73746E9E6704700BF68
:1004E000034613F8012B002AFBD1181A0138704774
:1004F00001F0FF01102A2BDB10F0070F08D010F8D5
:10050000013B013A8B422DD010F0070F42B3F6D1D8
:10051000F0B441EA012141EA014122F007047FF0F1
:1005200000070023F0E80256083C85EA010586EA48
:10053000010685FA47F5A3FA87F586FA47F6A5FA84
:1005400087F68EB9EED1F0BC01F0FF0102F0070290
:1005500032B110F8013B013A83EA010313B1F8D13B
:100560000020704701387047002D06BF354603381C
:10057000073815F0010F07D1013015F4807F02BF55
:10058000013015F4C03F0130F0BC0138704700BFA6
:1005900010B504460E4B18784FF47A73B3FBF0F3A2
:1005A0000C4A1068B0FBF3F000F094F868B90F2C17
:1005B00001D901200AE0002221464FF0FF3000F06F
:1005C00049F8034B5C60002000E0012010BD00BF33
:1005D000000000200800002008B50B4B1A6842F408
:1005E00000721A601A6842F480621A601A6842F453
:1005F00080721A60032000F01BF80020FFF7C8FF8C
:1006000000F036FF002008BD003C0240034A11689C
:10061000034B1B780B441360704700BF9800002009
:1006200000000020014B1868704700BF98000020B0
:10063000074AD36823F4E0631B041B0C000200F498
:10064000E060184340F0BF6040F40030D060704775
:1006500000ED00E030B4174BDB68C3F30223C3F1B5
:100660000704042C28BF04241D1D062D18D9033BA4
:100670004FF0FF3505FA04F421EA0401994005FA28
:1006800003F322EA0303194300280BDB0901C9B273
:1006900000F1604000F5614080F8001330BC704705
:1006A0000023E5E700F00F000901C9B2024B19541D
:1006B000F4E700BF00ED00E014ED00E000F01F02E1
:1006C000400901239340024A42F82030704700BF9E
:1006D00000E100E00138B0F1807F0AD2064B58609B
:1006E000064AF02182F823100020986007221A6041
:1006F00070470120704700BF10E000E000ED00E00F
:10070000042805D0054A136823F0040313607047DA
:10071000024A136843F004031360704710E000E0DE
:10072000704708B5FFF7FCFF08BD000000230F2B42
:1007300000F2C580F0B482B039E0042200E000226B
:10074000B2403A4302345E4E46F824205D4A1468B3
:10075000EA4302EA04064F6817F4803F01D045EAF5
:100760000406584C2660646802EA04064F6817F4D1
:10077000003F01D045EA0406524C6660A46802EAD4
:1007800004064F6817F4801F01D045EA04064D4C5B
:10079000A660E46822404E6816F4001F01D045EAC6
:1007A0000402484CE26001330F2B00F285800122E5
:1007B0009A400C6804EA0205AA42F4D14C68022C63
:1007C00001D0122C10D1DE08083650F826C003F0F4
:1007D0000704A7000F24BC402CEA040C0C69BC40A1
:1007E00044EA0C0440F8264004685F000326BE403B
:1007F000F64306EA040C4C6804F00304BC4044EAE7
:100800000C0404604C6804F1FF3CBCF1010F03D9F7
:10081000112C01D0122C10D1846806EA040CCC688B
:10082000BC4044EA0C048460446824EA02024C6838
:10083000C4F300149C4014434460C26816408A68A4
:10084000BA403243C2604A6812F0805FABD00022E7
:1008500001921D4A546C44F480445464526C02F476
:1008600080420192019A9C08A61C154A52F82670F3
:1008700003F0030296000F22B24027EA0207134A50
:1008800090423FF45CAF02F5806290420ED002F5D8
:10089000806290420CD002F5806290420AD002F54C
:1008A000806290423FF449AF072249E7012247E7BF
:1008B000022245E7032243E702B0F0BC70477047CD
:1008C00000380140003C0140003802400000024076
:1008D000002800F0BB8170B582B00446036813F0B5
:1008E000010F3BD0A74B9B6803F00C03042B2CD0CB
:1008F000A44B9B6803F00C03082B21D06368B3F56D
:10090000803F4FD0B3F5A02F52D09E4B1A6822F4EF
:1009100080321A601A6822F480221A606368002B01
:1009200050D0FFF77FFE0546964B1B6813F4003F3F
:1009300014D1FFF777FE401B6428F5D903208AE124
:10094000904B5B6813F4800FD8D08E4B1B6813F468
:10095000003F03D06368002B00F07A81236813F016
:10096000020F55D0874B9B6813F00C0F3ED0854B80
:100970009B6803F00C03082B33D0E368002B68D08E
:10098000814B01221A60FFF74DFE05467D4B1B6827
:1009900013F0020F54D1FFF745FE401B0228F5D992
:1009A000032058E1774A136843F480331360B5E7B6
:1009B000744B1A6842F480221A601A6842F480323A
:1009C0001A60ABE7FFF72EFE05466E4B1B6813F46B
:1009D000003FC3D0FFF726FE401B6428F5D9032053
:1009E00039E1684B5B6813F4800FC6D1654B1B6817
:1009F00013F0020F04D0E368012B01D001202AE19B
:100A0000604A136823F0F803216943EAC1031360C5
:100A1000236813F0080F40D0636963B35B4B012276
:100A20001A60FFF7FFFD0546564B5B6F13F0020F90
:100A300033D1FFF7F7FD401B0228F5D903200AE167
:100A4000504A136823F0F803216943EAC103136095
:100A5000DEE74D4B00221A60FFF7E4FD0546494BE7
:100A60001B6813F0020FD3D0FFF7DCFD401B0228F8
:100A7000F5D90320EFE0454B00221A60FFF7D2FDC5
:100A80000546404B5B6F13F0020F06D0FFF7CAFD1F
:100A9000401B0228F5D90320DDE0236813F0040F82
:100AA00079D0384B1B6C13F0805F33D10023019356
:100AB000344B1A6C42F080521A641B6C03F0805362
:100AC0000193019B0125324B1B6813F4807F23D0D7
:100AD000A368012B34D0052B38D02A4B1A6F22F093
:100AE00001021A671A6F22F004021A67A368002B2A
:100AF00036D0FFF797FD0646224B1B6F13F0020F0F
:100B000048D1FFF78FFD801B41F288339842F3D91B
:100B10000320A0E00025D6E71D4A136843F4807344
:100B20001360FFF77FFD0646194B1B6813F4807FA7
:100B3000CED1FFF777FD801B0228F5D903208AE08C
:100B4000104A136F43F001031367CFE70D4B1A6F81
:100B500042F004021A671A6F42F001021A67C5E7F1
:100B6000FFF760FD0646074B1B6F13F0020F11D015
:100B7000FFF758FD801B41F288339842F3D90320D8
:100B800069E000BF0038024000004742800E474243
:100B900000700040E5B9A369002B5BD0304A926831
:100BA00002F00C02082A58D0022B17D02D4B00223D
:100BB0001A60FFF737FD0446294B1B6813F0007FCE
:100BC00042D0FFF72FFD001B0228F5D9032042E099
:100BD000234A136C23F080531364DCE7214B00227B
:100BE0001A60FFF71FFD05461D4B1B6813F0007FC1
:100BF00006D0FFF717FD401B0228F5D903202AE095
:100C0000E369226A1343626A43EA8213A26A5208C2
:100C1000013A43EA0243E26A43EA0263104A53603C
:100C2000104B01221A60FFF7FDFC04460C4B1B68B9
:100C300013F0007F06D1FFF7F5FC001B0228F5D961
:100C4000032008E0002006E0002004E001207047B7
:100C5000012000E0002002B070BD0120FBE700BFD2
:100C60000038024060004742264B9B6803F00C03AB
:100C7000042B44D0082B01D0234870472DE9F04BBA
:100C8000204B5A6802F03F025B6813F4800F13D0C8
:100C90001C4B5968C1F3881100231C48A1FB0001BB
:100CA000FFF79EFA174B5B68C3F3014301335B0008
:100CB000B0FBF3F0BDE8F08B124B5B68C3F3881315
:100CC0001E4600275C010025E41A65EB0705A90113
:100CD00041EA9461A001001B61EB0501CB0043EAEE
:100CE0005073C400A01943EB07018B0243EA9053F1
:100CF0008402204619460023FFF772FAD2E7034820
:100D0000704700BF003802400024F40040787D01A5
:100D1000002800F09D8070B504464F4B1B6803F01F
:100D20000F038B4209D2CBB24B4A1370136803F006
:100D30000F038B4201D0012070BD236813F0020F16
:100D400017D013F0040F04D0444A936843F4E053DF
:100D50009360236813F0080F04D0404A936843F46B
:100D6000604393603D4A936823F0F003A068034317
:100D700093600D46236813F0010F32D06368012B96
:100D800021D09A1E012A25D9344A126812F0020F86
:100D900060D032498A6822F0030213438B60FFF768
:100DA00041FC06462D4B9B6803F00C036268B3EBD5
:100DB000820F16D0FFF736FC801B41F28833984231
:100DC000F0D90320B8E7254A126812F4003FE0D1B9
:100DD0000120B1E7214A126812F0007FD9D1012029
:100DE000AAE71D4B1B6803F00F03AB4209D9EAB217
:100DF000194B1A701B6803F00F03AB4201D001209E
:100E00009AE7236813F0040F06D0144A936823F47A
:100E1000E053E1680B439360236813F0080F07D099
:100E20000E4A936823F46043216943EAC103936047
:100E3000FFF71AFF094B9B68C3F30313084AD35CFF
:100E4000D840084B18600020FFF7A2FB002073E792
:100E50000120704701206FE7003C0240003802404B
:100E6000581E000808000020014B1868704700BF9A
:100E70000800002008B5FFF7F7FF044B9B68C3F399
:100E80008223034AD35CD84008BD00BF003802402B
:100E9000681E000808B5FFF7E7FF044B9B68C3F323
:100EA0004233034AD35CD84008BD00BF003802403B
:100EB000681E00082DE9F843044601680A6922F417
:100EC0004052C36813430B610168CA6822F416429A
:100ED00022F00C0283680069034360690343E06900
:100EE00003431343CB6021684A6922F44072A3692B
:100EF00013434B61E369B3F5004F60D02368B84AF0
:100F0000934200F0148102F58062934200F00F8159
:100F1000FFF7B0FF00EB800000EB80006568AD00DC
:100F2000B0FBF5F5AF4FA7FB05356D092E01FFF7B7
:100F3000A1FF00EB800000EB80006568AD00B0FB16
:100F4000F5F9FFF797FF00EB800000EB8000656884
:100F5000AD00B0FBF5F5A7FB05356D094FF0640852
:100F600008FB15952D013235A7FB05356D0905F0F8
:100F7000F0053544FFF77EFF00EB800000EB8000BA
:100F80006668B600B0FBF6F6FFF774FF00EB800072
:100F900000EB800063689B00B0FBF3F0A7FB003020
:100FA000400908FB10684FEA081808F13208A7FB4F
:100FB0000837C7F3431723682F449F600DE1236868
:100FC000874A93425BD002F58062934257D0FFF785
:100FD00051FF00EB800000EB800065686D00B0FB06
:100FE000F5F5804FA7FB05356D092E01FFF742FF90
:100FF00000EB800000EB800065686D00B0FBF5F948
:10100000FFF738FF00EB800000EB800065686D00A3
:10101000B0FBF5F5A7FB05356D094FF0640808FB3B
:101020001595ED003235A7FB05356D096D0005F40A
:10103000F8753544FFF71EFF00EB800000EB8000E1
:1010400066687600B0FBF6F6FFF714FF00EB800051
:1010500000EB800063685B00B0FBF3F3A7FB0323A6
:101060005B0908FB13684FEAC80808F13208A7FBC0
:101070000837C7F3421723682F449F60ADE0FFF79E
:1010800009FF00EB800000EB800065686D00B0FB9D
:10109000F5F5544FA7FB05356D092E01FFF7FAFE54
:1010A00000EB800000EB800065686D00B0FBF5F997
:1010B000FFF7F0FE00EB800000EB800065686D003C
:1010C000B0FBF5F5A7FB05356D094FF0640808FB8B
:1010D0001595ED003235A7FB05356D096D0005F45A
:1010E000F8753544FFF7D6FE00EB800000EB80007A
:1010F00066687600B0FBF6F6FFF7CCFE00EB8000EA
:1011000000EB800063685B00B0FBF3F3A7FB0323F5
:101110005B0908FB13684FEAC80808F13208A7FB0F
:101120000837C7F3421723682F449F6055E0FFF745
:10113000B1FE00EB800000EB80006568AD00B0FB05
:10114000F5F5284FA7FB05356D092E01FFF7A2FE27
:1011500000EB800000EB80006568AD00B0FBF5F9A6
:10116000FFF798FE00EB800000EB80006568AD00A3
:10117000B0FBF5F5A7FB05356D094FF0640808FBDA
:1011800015952D013235A7FB05356D0905F0F005E4
:101190003544FFF77FFE00EB800000EB80006668BF
:1011A000B600B0FBF6F6FFF775FE00EB800000EB33
:1011B000800063689B00B0FBF3F0A7FB00304009A0
:1011C00008FB10684FEA081808F13208A7FB083737
:1011D000C7F3431723682F449F60BDE8F88300BF1F
:1011E000001001401F85EB512DE9F04105460F46E7
:1011F00016469846069C2B681B6837EA03030CBF0B
:1012000001230023B3421DD1B4F1FF3FF3D02CB131
:10121000FFF708FAA0EB0800A042ECD92A68D368CF
:1012200023F4D073D3602A68536923F00103536118
:10123000202385F8393085F83A30002385F8383096
:10124000032000E00020BDE8F08158B310B504464B
:1012500090F839300BB3242384F839302268D368EE
:1012600023F40053D3602046FFF724FE226813695D
:1012700023F4904313612268536923F02A035361D6
:101280002268D36843F40053D3600020E063202336
:1012900084F8393084F83A3010BD80F8383000F0E6
:1012A00005F9D8E7012070472DE9F04182B01E46CC
:1012B00090F83930DBB2202B55D104460D469046CC
:1012C000002955D0002A55D090F83830012B53D042
:1012D000012380F838300023C363212380F839309C
:1012E000FFF7A0F90746A4F82480A4F8268010E0B0
:1012F00000963B46002280212046FFF775FF00281C
:101300003CD12B882268C3F3080353602369C3B917
:101310000235E38C9BB2B3B1E38C013B9BB2E38417
:10132000A368B3F5805FE3D000963B46002280219E
:101330002046FFF759FF18BB2A7823685A60013509
:10134000E7E70135E5E700963B46002240212046CD
:10135000FFF74AFF0346A8B9202284F8392000226B
:1013600084F8382000E00223184602B0BDE8F0817E
:101370000123F9E70123F7E70223F5E70323F3E766
:101380000323F1E70323EFE708B5FFF73FF9FFF782
:10139000C8F908BDFEE7000008B50948094B03601D
:1013A0004FF4E133436000238360C36003610C2288
:1013B00042618361FFF749FF00B908BDFFF7EAFF0B
:1013C0009C0000200044004000B5ABB0FFF704F9DA
:1013D000FFF7E2FF2822002120A800F015F90123E1
:1013E0001E934FF4A0231F931EA8FFF771FA08B1B4
:1013F000FFF7D0FF0F23199301231A9380231B9328
:101400004FF480531C931D93002119A8FFF780FC13
:1014100008B1FFF7BFFF0024124B1C60FFF724FD4B
:101420004FF47A73B0FBF3F0FFF754F90420FFF7A1
:1014300067F9FFF7B1FF64222146684600F0E4F83F
:10144000FFF712FC02460849684600F0E5F86846D6
:10145000FFF746F84FF0FF3382B269460348FFF7C3
:1014600023FFFEE700004742701E00089C0000209A
:1014700008B50320FFF7DCF80B4A536A43F4E02376
:101480005362002211466FF00B00FFF7E3F80022D1
:1014900011466FF00A00FFF7DDF8002211466FF0E9
:1014A0000900FFF7D7F808BD00ED00E030B589B0BE
:1014B00000240194184B1A6C42F400321A641A6C1E
:1014C00002F400320192019A02941A6B42F0010276
:1014D0001A631B6B03F001030293029B0423039323
:1014E00002230493012305930694072307930B4DCE
:1014F00003A92846FFF71AF90823039303A92846EE
:10150000FFF714F92620FFF7D9F822460F212620ED
:10151000FFF7A0F809B030BD0038024000000240DB
:101520000F49D1F8883043F47003C1F888300D4B6F
:101530001A6842F001021A60002098601A6822F0CE
:10154000847222F480321A60074A5A601A6822F4C0
:1015500080221A60D8604FF000638B60704700BF34
:1015600000ED00E00038024010300024DFF834D0F5
:10157000002103E00C4B5B58435004310B480C4BEB
:1015800042189A42F6D30B4A02E0002342F8043B89
:10159000094B9A42F9D3FFF7C3FF00F011F8FFF7A8
:1015A00013FF704700000220C81E00080000002042
:1015B0007000002070000020E0000020FEE7000026
:1015C00070B50D4E0D4CA41BA4100025A54209D1E9
:1015D0000B4E0C4C00F034FCA41BA4100025A542BB
:1015E00005D170BD56F8253098470135EEE756F81D
:1015F000253098470135F2E7C01E0008C01E0008DC
:10160000C01E0008C41E000802440346934200D1D5
:10161000704703F8011BF9E70EB400B59CB01DAB91
:10162000029006906FF00041094807910491094922
:1016300053F8042B05910068019302A900F066F8A5
:10164000029B00221A701CB05DF804EB03B07047D7
:101650000C0000200802FFFF2DE9F0478E689E4233
:1016600082460C469046994637D88A8912F4906F84
:1016700031D0256809696F1A6569022305EB4505B4
:1016800095FBF3F509F101033B449D4238BF1D462C
:10169000530530D5294600F02BFB064650B90C23E4
:1016A000CAF80030A38943F04003A3814FF0FF3014
:1016B000BDE8F0873A46216900F0A8FAA38923F42F
:1016C000906343F08003A381266165613E44ED1B76
:1016D0002660A5604E464E4500D94E4632464146EC
:1016E000206800F09EFAA3689B1BA36023681E4439
:1016F00026600020DCE72A4600F054FB064600285E
:10170000E2D12169504600F0A5FAC8E72DE9F04F73
:101710001D468B891F069DB080460C4616460FD588
:101720000B696BB9402100F0E3FA2060206128B911
:101730000C23C8F800304FF0FF30C8E0402363614D
:101740000023099320238DF8293030238DF82A3087
:1017500003954FF0010B37463D4615F8013B0BB1A1
:10176000252B3ED1B7EB060A0BD053463246214615
:101770004046FFF771FF013000F0A480099B5344FD
:1017800009933B78002B00F09D8000234FF0FF323F
:10179000CDE90523049307938DF853301A932F4610
:1017A000052217F8011B5048FEF7A2FE049BD0B992
:1017B000D90644BF20228DF853201A0744BF2B229C
:1017C0008DF853202A782A2A15D0079A2F46002010
:1017D0000A25394611F8013B303B092B4DD9B8B1E8
:1017E0000FE02F46B8E7404A801A0BFA00F0184382
:1017F00004903D46D3E7039A111D12680391002A15
:1018000001DB079204E0524243F002030792049383
:101810003B782E2B0CD17B782A2B33D1039B1A1DBE
:101820001B680392002BB8BF4FF0FF3302370593BC
:101830002E4D397803222846FEF75AFE38B1402350
:10184000401B03FA00F0049B0343013704933978EB
:1018500027488DF8281006227E1CFEF749FE002836
:1018600038D0244B13BB039B073323F00703083303
:101870000393099B4B4409936DE705FB023201205A
:101880000F46A6E700230137059319460A25384677
:1018900010F8012B303A092A03D9002BC8D0059142
:1018A000C6E705FB012101230746F0E703AB0093E0
:1018B0002246114B04A94046AFF30080B0F1FF3F30
:1018C0008146D6D1A3895B063FF535AF09981DB097
:1018D000BDE8F08F03AB00932246074B04A94046B6
:1018E00000F082F8EAE700BF841E00088A1E0008A4
:1018F0008E1E000800000000591600082DE9F04770
:1019000091461F468A680B69DDF820809342B8BF74
:101910001346C9F8003091F8432006460C4612B130
:101920000133C9F800302368990642BFD9F8003066
:101930000233C9F80030256815F0060507D104F117
:10194000190AE368D9F800209B1AAB4228DC94F806
:1019500043302268003318BF012392062DD404F1CE
:10196000430239463046C047013020D02368E5683D
:10197000D9F8002003F00603042B08BFAD1AA368B2
:1019800022690CBF25EAE57500259342C4BF9B1A66
:10199000ED184FF000091A344D451AD1002008E027
:1019A0000123524639463046C047013003D14FF03B
:1019B000FF30BDE8F0870135C3E7E1185A1C30203D
:1019C00081F84300224494F8451082F84310023312
:1019D000C5E70123224639463046C0470130E6D0EC
:1019E00009F10109D8E700002DE9F04301F1430CAA
:1019F0000C46097E85B06E291746064698460C9A15
:101A000000F0B38022D8632936D00AD8002900F02C
:101A1000B980582900F0838004F1420584F842100F
:101A200032E0642901D06929F6D1206813680506DF
:101A300003F104012AD51B681160002B03DA2D2263
:101A40005B4284F843206F480A2239E0732900F092
:101A50009D8008D86F2920D07029DDD1236843F0FC
:101A60002003236003E0752917D07829D4D1782387
:101A700084F84530644855E01368191D1B681160EF
:101A800004F1420584F8423001238CE01B681160A8
:101A900010F0400F18BF1BB2CFE713682568181D60
:101AA0001060280601D51B6802E06806FBD51B887C
:101AB00054486F2914BF0A220822002184F84310D9
:101AC0006568A560002DC0F29580216821F00401B1
:101AD0002160002B3DD1002D40F08E806546082A04
:101AE0000BD12368DB0708D5236962689A42DEBF01
:101AF000302305F8013C05F1FF35ACEB050323610C
:101B0000CDF800803B4603AA21463046FFF7F6FE9B
:101B100001304DD14FF0FF3005B0BDE8F0833948BA
:101B200084F84510136821681D1D1B6815600A069E
:101B30000BD5CA0744BF41F0200121601BB92268C0
:101B400022F0200222601022B7E74D0648BF9BB268
:101B5000EFE76546B3FBF2F102FB1133C35C05F816
:101B6000013D0B460029F5D1B9E713682568616985
:101B7000181D106028061B6801D5196002E06A066E
:101B8000FBD51980002323616546B9E71368191D49
:101B900011601D68626800212846FEF7A9FC08B1A3
:101BA000401B606063682361002384F84330A7E72B
:101BB00023692A4639463046C0470130AAD02368F7
:101BC0009B0713D4E068039B9842B8BF1846A3E76D
:101BD00001234A4639463046C04701309AD0013584
:101BE000E368039A9B1AAB42F2DCEBE7002504F1B1
:101BF0001909F5E7002BACD1037884F8423004F1E1
:101C000042056CE7951E0008A61E000810B5431E8D
:101C10000A44914200D110BD11F8014B03F8014F65
:101C2000F7E7884210B501EB020307D8421E99423C
:101C30000AD011F8014B02F8014FF8E78342F5D9B9
:101C40008118D21AD34200D110BD13F8014D01F80A
:101C5000014DF7E738B50546002945D051F8043C59
:101C60000C1F002BB8BFE41800F0D2F81F4A13680D
:101C7000104633B9636014602846BDE8384000F070
:101C8000C8B8A3420CD921686218934204BF1A68ED
:101C90005B68636004BF521822600460ECE713467F
:101CA0005A680AB1A242FAD919685818A0420BD151
:101CB00020680144581882421960DDD110685268CA
:101CC0005A6001441960D7E702D90C232B60D3E78F
:101CD000206821188A4204BF11685268626004BFFC
:101CE000091821605C60C7E738BD00BF8C00002088
:101CF00070B5CD1C25F0030508350C2D38BF0C251B
:101D0000002D064601DBA94203D90C2333600020D5
:101D100070BD00F07DF8214A1468214691B9204C2D
:101D200023681BB9304600F063F82060294630462E
:101D300000F05EF8431C24D10C233360304600F0E1
:101D400068F8E4E70B685B1B18D40B2B0FD90B600A
:101D5000CD50CC18304600F05CF804F10B00231D88
:101D600020F00700C31AD3D05A42E250D0E78C4289
:101D70004B6816BF636013600C46EBE70C4649687E
:101D8000CCE7C41C24F00304A04205D0211A30463D
:101D900000F02EF80130CFD02560DBE78C0000206A
:101DA00090000020F8B5074614460E4621B91146AA
:101DB000BDE8F840FFF79CBF22B9FFF74BFF25466F
:101DC0002846F8BD00F026F8A0420FD2214638463A
:101DD000FFF78EFF05460028F2D031462246FFF776
:101DE00015FF31463846FFF735FFE9E73546E7E7A7
:101DF00038B5064C002305460846236000F012F86B
:101E0000431C02D1236803B12B6038BDDC000020E5
:101E10007047704751F8043C181F002BBCBF0B588B
:101E2000C0187047044A05491368002B08BF0B46C9
:101E3000184410601846704794000020E00000200D
:101E4000F8B500BFF8BC08BC9E467047F8B500BFA7
:081E5000F8BC08BC9E46704777
:101E58000000000000000000010203040607080952
:101E68000000000001020304535953434C4F434BF5
:101E7800203A20256C64487A0D0A0000232D302B67
:101E88002000686C4C006566674546470030313273
:101E980033343536373839414243444546003031CA
:101EA8003233343536373839616263646566000029
:081EB80058E3FF7F0100000068
:041EC000C501000850
:041EC400A101000870
:101EC80001000000100000000024F40010000020B1
:101ED80000000000000000000000000000000000FA
:101EE80000000000000000000000000000000000EA
:101EF80000000000000000000000000000000000DA
:101F080000000000000000000000000000000000C9
:101F180000000000000000000000000000000000B9
:101F280000000000000000000000000000000000A9
:040000050800156D6D
:00000001FF
