:020000040800F2
:10000000000002201D0E00086D0E00086D0E000895
:100010006D0E00086D0E00086D0E00080000000057
:100020000000000000000000000000006D0E00084D
:100030006D0E0008000000006D0E00086F0C000837
:100040006D0E00086D0E00086D0E00086D0E0008A4
:100050006D0E00086D0E00086D0E00086D0E000894
:100060006D0E00086D0E00086D0E00086D0E000884
:100070006D0E00086D0E00086D0E00086D0E000874
:100080006D0E00086D0E00086D0E000800000000E7
:100090000000000000000000000000006D0E0008DD
:1000A0006D0E00086D0E00086D0E00086D0E000844
:1000B0006D0E00086D0E00086D0E00086D0E000834
:1000C0006D0E00086D0E00086D0E00086D0E000824
:1000D0006D0E00086D0E00086D0E00080000000097
:1000E0006D0E00086D0E00086D0E00080000000087
:1000F0000000000000000000000000006D0E00087D
:10010000000000006D0E00086D0E00086D0E000866
:1001100000000000000000000000000000000000DF
:100120006D0E00086D0E00086D0E00086D0E0008C3
:100130006D0E00080000000000000000000000003C
:100140000000000000000000000000006D0E00082C
:100150006D0E00086D0E00086D0E00086D0E000893
:100160006D0E00086D0E0008000000000000000089
:10017000000000000000000000000000000000007F
:10018000000000006D0E00080000000000000000EC
:080190006D0E00086D0E000861
:1001980010B5054C237833B9044B13B10448AFF3B9
:1001A80000800123237010BD0C0000200000000017
:1001B800B80E000808B5034B1BB103490348AFF359
:1001C800008008BD0000000010000020B80E0008E4
:1001D80010B504460E4B18784FF47A73B3FBF0F35E
:1001E8000C4A1068B0FBF3F000F094F868B90F2CD3
:1001F80001D901200AE0002221464FF0FF3000F02B
:1002080049F8034B5C60002000E0012010BD00BFEE
:10021800000000200800002008B50B4B1A6842F4C3
:1002280000721A601A6842F480621A601A6842F40E
:1002380080721A60032000F01BF80020FFF7C8FF47
:1002480000F06AFD002008BD003C0240034A116826
:10025800034B1B780B441360704700BF2800002035
:1002680000000020014B1868704700BF28000020DC
:10027800074AD36823F4E0631B041B0C000200F454
:10028800E060184340F0BF6040F40030D060704731
:1002980000ED00E030B4174BDB68C3F30223C3F171
:1002A8000704042C28BF04241D1D062D18D9033B60
:1002B8004FF0FF3505FA04F421EA0401994005FAE4
:1002C80003F322EA0303194300280BDB0901C9B22F
:1002D80000F1604000F5614080F8001330BC7047C1
:1002E8000023E5E700F00F000901C9B2024B1954D9
:1002F800F4E700BF00ED00E014ED00E000F01F029D
:10030800400901239340024A42F82030704700BF59
:1003180000E100E00138B0F1807F0AD2064B586056
:10032800064AF02182F823100020986007221A60FC
:1003380070470120704700BF10E000E000ED00E0CA
:10034800704708B5FFF7FCFF08BD000000230F2B1E
:1003580000F2C580F0B482B039E0042200E0002247
:10036800B2403A4302345E4E46F824205D4A14688F
:10037800EA4302EA04064F6817F4803F01D045EAD1
:100388000406584C2660646802EA04064F6817F4AD
:10039800003F01D045EA0406524C6660A46802EAB0
:1003A80004064F6817F4801F01D045EA04064D4C37
:1003B800A660E46822404E6816F4001F01D045EAA2
:1003C8000402484CE26001330F2B00F285800122C1
:1003D8009A400C6804EA0205AA42F4D14C68022C3F
:1003E80001D0122C10D1DE08083650F826C003F0D0
:1003F8000704A7000F24BC402CEA040C0C69BC407D
:1004080044EA0C0440F8264004685F000326BE4016
:10041800F64306EA040C4C6804F00304BC4044EAC2
:100428000C0404604C6804F1FF3CBCF1010F03D9D3
:10043800112C01D0122C10D1846806EA040CCC6867
:10044800BC4044EA0C048460446824EA02024C6814
:10045800C4F300149C4014434460C26816408A6880
:10046800BA403243C2604A6812F0805FABD00022C3
:1004780001921D4A546C44F480445464526C02F452
:1004880080420192019A9C08A61C154A52F82670CF
:1004980003F0030296000F22B24027EA0207134A2C
:1004A80090423FF45CAF02F5806290420ED002F5B4
:1004B800806290420CD002F5806290420AD002F528
:1004C800806290423FF449AF072249E7012247E79B
:1004D800022245E7032243E702B0F0BC70477047A9
:1004E80000380140003C0140003802400000024052
:1004F800002800F0BB8170B582B00446036813F091
:10050800010F3BD0A74B9B6803F00C03042B2CD0A6
:10051800A44B9B6803F00C03082B21D06368B3F548
:10052800803F4FD0B3F5A02F52D09E4B1A6822F4CB
:1005380080321A601A6822F480221A606368002BDD
:1005480050D0FFF78FFE0546964B1B6813F4003F0B
:1005580014D1FFF787FE401B6428F5D903208AE1F0
:10056800904B5B6813F4800FD8D08E4B1B6813F444
:10057800003F03D06368002B00F07A81236813F0F2
:10058800020F55D0874B9B6813F00C0F3ED0854B5C
:100598009B6803F00C03082B33D0E368002B68D06A
:1005A800814B01221A60FFF75DFE05467D4B1B68F3
:1005B80013F0020F54D1FFF755FE401B0228F5D95E
:1005C800032058E1774A136843F480331360B5E792
:1005D800744B1A6842F480221A601A6842F4803216
:1005E8001A60ABE7FFF73EFE05466E4B1B6813F437
:1005F800003FC3D0FFF736FE401B6428F5D903201F
:1006080039E1684B5B6813F4800FC6D1654B1B68F2
:1006180013F0020F04D0E368012B01D001202AE176
:10062800604A136823F0F803216943EAC1031360A1
:10063800236813F0080F40D0636963B35B4B012252
:100648001A60FFF70FFE0546564B5B6F13F0020F5B
:1006580033D1FFF707FE401B0228F5D903200AE132
:10066800504A136823F0F803216943EAC103136071
:10067800DEE74D4B00221A60FFF7F4FD0546494BB3
:100688001B6813F0020FD3D0FFF7ECFD401B0228C4
:10069800F5D90320EFE0454B00221A60FFF7E2FD91
:1006A8000546404B5B6F13F0020F06D0FFF7DAFDEB
:1006B800401B0228F5D90320DDE0236813F0040F5E
:1006C80079D0384B1B6C13F0805F33D10023019332
:1006D800344B1A6C42F080521A641B6C03F080533E
:1006E8000193019B0125324B1B6813F4807F23D0B3
:1006F800A368012B34D0052B38D02A4B1A6F22F06F
:1007080001021A671A6F22F004021A67A368002B05
:1007180036D0FFF7A7FD0646224B1B6F13F0020FDA
:1007280048D1FFF79FFD801B41F288339842F3D9E7
:100738000320A0E00025D6E71D4A136843F4807320
:100748001360FFF78FFD0646194B1B6813F4807F73
:10075800CED1FFF787FD801B0228F5D903208AE058
:10076800104A136F43F001031367CFE70D4B1A6F5D
:1007780042F004021A671A6F42F001021A67C5E7CD
:10078800FFF770FD0646074B1B6F13F0020F11D0E1
:10079800FFF768FD801B41F288339842F3D90320A4
:1007A80069E000BF0038024000004742800E47421F
:1007B80000700040E5B9A369002B5BD0304A92680D
:1007C80002F00C02082A58D0022B17D02D4B002219
:1007D8001A60FFF747FD0446294B1B6813F0007F9A
:1007E80042D0FFF73FFD001B0228F5D9032042E065
:1007F800234A136C23F080531364DCE7214B002257
:100808001A60FFF72FFD05461D4B1B6813F0007F8C
:1008180006D0FFF727FD401B0228F5D903202AE060
:10082800E369226A1343626A43EA8213A26A52089E
:10083800013A43EA0243E26A43EA0263104A536018
:10084800104B01221A60FFF70DFD04460C4B1B6884
:1008580013F0007F06D1FFF705FD001B0228F5D92C
:10086800032008E0002006E0002004E00120704793
:10087800012000E0002002B070BD0120FBE700BFAE
:100888000038024060004742014B1868704700BFBB
:100898000800002008B5FFF7F7FF044B9B68C3F377
:1008A8008223034AD35CD84008BD00BF0038024009
:1008B800E00E000808B5FFF7E7FF044B9B68C3F399
:1008C8004233034AD35CD84008BD00BF0038024019
:1008D800E00E00082DE9F843044601680A6922F48D
:1008E8004052C36813430B610168CA6822F4164278
:1008F80022F00C0283680069034360690343E069DE
:1009080003431343CB6021684A6922F44072A36908
:1009180013434B61E369B3F5004F60D02368B84ACD
:10092800934200F0148102F58062934200F00F8137
:10093800FFF7B0FF00EB800000EB80006568AD00BA
:10094800B0FBF5F5AF4FA7FB05356D092E01FFF795
:10095800A1FF00EB800000EB80006568AD00B0FBF4
:10096800F5F9FFF797FF00EB800000EB8000656862
:10097800AD00B0FBF5F5A7FB05356D094FF0640830
:1009880008FB15952D013235A7FB05356D0905F0D6
:10099800F0053544FFF77EFF00EB800000EB800098
:1009A8006668B600B0FBF6F6FFF774FF00EB800050
:1009B80000EB800063689B00B0FBF3F0A7FB0030FE
:1009C800400908FB10684FEA081808F13208A7FB2D
:1009D8000837C7F3431723682F449F600DE1236846
:1009E800874A93425BD002F58062934257D0FFF763
:1009F80051FF00EB800000EB800065686D00B0FBE4
:100A0800F5F5804FA7FB05356D092E01FFF742FF6D
:100A180000EB800000EB800065686D00B0FBF5F925
:100A2800FFF738FF00EB800000EB800065686D0081
:100A3800B0FBF5F5A7FB05356D094FF0640808FB19
:100A48001595ED003235A7FB05356D096D0005F4E8
:100A5800F8753544FFF71EFF00EB800000EB8000BF
:100A680066687600B0FBF6F6FFF714FF00EB80002F
:100A780000EB800063685B00B0FBF3F3A7FB032384
:100A88005B0908FB13684FEAC80808F13208A7FB9E
:100A98000837C7F3421723682F449F60ADE0FFF77C
:100AA80009FF00EB800000EB800065686D00B0FB7B
:100AB800F5F5544FA7FB05356D092E01FFF7FAFE32
:100AC80000EB800000EB800065686D00B0FBF5F975
:100AD800FFF7F0FE00EB800000EB800065686D001A
:100AE800B0FBF5F5A7FB05356D094FF0640808FB69
:100AF8001595ED003235A7FB05356D096D0005F438
:100B0800F8753544FFF7D6FE00EB800000EB800057
:100B180066687600B0FBF6F6FFF7CCFE00EB8000C7
:100B280000EB800063685B00B0FBF3F3A7FB0323D3
:100B38005B0908FB13684FEAC80808F13208A7FBED
:100B48000837C7F3421723682F449F6055E0FFF723
:100B5800B1FE00EB800000EB80006568AD00B0FBE3
:100B6800F5F5284FA7FB05356D092E01FFF7A2FE05
:100B780000EB800000EB80006568AD00B0FBF5F984
:100B8800FFF798FE00EB800000EB80006568AD0081
:100B9800B0FBF5F5A7FB05356D094FF0640808FBB8
:100BA80015952D013235A7FB05356D0905F0F005C2
:100BB8003544FFF77FFE00EB800000EB800066689D
:100BC800B600B0FBF6F6FFF775FE00EB800000EB11
:100BD800800063689B00B0FBF3F0A7FB003040097E
:100BE80008FB10684FEA081808F13208A7FB083715
:100BF800C7F3431723682F449F60BDE8F88300BFFD
:100C0800001001401F85EB5158B310B5044690F809
:100C180039300BB3242384F839302268D36823F49D
:100C28000053D3602046FFF755FE2268136923F46A
:100C3800904313612268536923F02A0353612268A1
:100C4800D36843F40053D3600020E063202384F882
:100C5800393084F83A3010BD80F8383000F07AF82E
:100C6800D8E70120704708B5FFF7F0FAFFF769FBEE
:100C780008BDFEE700B58DB0022300930122039260
:100C880010220492069300230793542810D0782842
:100C980016D0322809D108926423099302230A93B3
:100CA8000B936846FFF724FC90B90DB05DF804FB80
:100CB80010230893A823099302230A930B93F0E7C0
:100CC80010230893F023099302230A930B93E8E770
:100CD800FFF7CFFF08B50948094B03604FF4E1332C
:100CE800436000238360C36003610C224261836117
:100CF800FFF78AFF00B908BDFFF7BBFF2C000020F3
:100D08000044004008B5FFF787FAFFF7E3FF3220F9
:100D1800FFF7B0FFFEE7000008B50320FFF7A8FAC9
:100D28000B4A536A43F4E0235362002211466FF0E2
:100D38000B00FFF7AFFA002211466FF00A00FFF729
:100D4800A9FA002211466FF00900FFF7A3FA08BDBF
:100D580000ED00E030B589B000240194184B1A6CFE
:100D680042F400321A641A6C02F400320192019AB9
:100D780002941A6B42F001021A631B6B03F0010321
:100D88000293029B042303930223049301230593F4
:100D98000694072307930B4D03A92846FFF7D6FAB5
:100DA8000823039303A92846FFF7D0FA2620FFF764
:100DB800A5FA22460F212620FFF76CFA09B030BDAC
:100DC80000380240000002400F49D1F8883043F44F
:100DD8007003C1F888300D4B1A6842F001021A609E
:100DE800002098601A6822F0847222F480321A6017
:100DF800074A5A601A6822F480221A60D8604FF0B5
:100E080000638B60704700BF00ED00E000380240CF
:100E180010300024DFF834D0002103E00C4B5B587D
:100E2800435004310B480C4B42189A42F6D30B4AF4
:100E380002E0002342F8043B094B9A42F9D3FFF73A
:100E4800C3FF00F011F8FFF75DFF704700000220B4
:100E5800F00E0008000000200C0000200C0000200C
:100E68006C000020FEE7000070B50D4E0D4CA41B71
:100E7800A4100025A54209D10B4E0C4C00F018F81F
:100E8800A41BA4100025A54205D170BD56F8253035
:100E980098470135EEE756F8253098470135F2E7CF
:100EA800E80E0008E80E0008E80E0008EC0E00083E
:100EB800F8B500BFF8BC08BC9E467047F8B500BF3F
:080EC800F8BC08BC9E4670470F
:100ED00000000000000000000102030406070809EA
:080EE000000000000102030400
:040EE800BD01000840
:040EEC009901000860
:0C0EF00001000000100000000024F400CD
:0400000508000E1DC4
:00000001FF
